:020000040800F2
:1000000040130020010100086F320008792D00081C
:100010006D320008A90E0008E93800080000000051
:100020000000000000000000000000005335000840
:10003000BD10000800000000E73400085535000836
:100040001B0100081B0100081B0100081B01000820
:100050001B0100081B0100081B0100081B01000810
:100060001B0100081B0100081B0100081B01000800
:100070001B0100081B0100081B0100081B010008F0
:100080001B0100081B0100081B0100081B010008E0
:100090001B0100081B0100081B0100081B010008D0
:1000A0001B0100081B0100081B0100081B010008C0
:1000B000E13500081B0100081B0100081B010008B6
:1000C0001B0100081B0100081B0100081B010008A0
:1000D0001B0100081B0100081B010008D53800089F
:1000E0001B0100081B0100081B010008DFF80CD0F1
:1000F00000F030FC0048004789420008401300200F
:100100000648804706480047FEE7FEE7FEE7FEE7B1
:10011000FEE7FEE7FEE7FEE7FEE7FEE7DF35000865
:10012000ED000008202A04DB203A21FA02F0002129
:10013000704721FA02F3D040C2F1200291400843F7
:1001400019467047D2B201E000F8012B491EFBD2DC
:1001500070470022F6E710B513460A4604461946D2
:10016000FFF7F0FF204610BD30B505462A460B4686
:1001700012F8010B13F8014B08B1A042F8D01CB1E2
:10018000002802D06D1CF1E7284630BD421C10F853
:10019000011B0029FBD1801A704700000FB400B585
:1001A0008DB010A909900B9000914FF0FF300A908C
:1001B00000200C9005480690054807906A4609A85B
:1001C0000F9900F0A9F90DB05DF814FB3505000892
:1001D000530500082DE9FF5F1D464FF0FF3BD5E9B1
:1001E000014691465F464FF00008A9697F1C0198BF
:1001F0008847296A824688470028F6D1BAF1FF3F2E
:100200000CD024F4C064002E19DD600614D5BAF1B8
:100210002B0F09D0BAF12D0F0ED103E0584604B0D0
:10022000BDE8F09F44F48064A9697F1C0198884769
:10023000761E8246002E02DDBAF1300F03D0B9F1EE
:10024000000F26D032E0A969761E44F400747F1CAA
:10025000019888478246002E05DDBAF1780F06D056
:10026000BAF1580F03D0B9F1000F10D01EE0B9F168
:10027000000F02D0B9F1100F18D1A969761E24F42D
:1002800000747F1C019888478246102002E00820F5
:1002900000E00A20814609E008FB0908A969761EEA
:1002A00044F400747F1C019888478246002E05DDC7
:1002B0004946504600F01CF90028EDDAE96901983A
:1002C0008847A00502D46FF00100A8E7E00725D118
:1002D000600613D5600502D5C8F1000000E0404675
:1002E00029680A1D2A600968220501D5087015E0F1
:1002F000220701D5088011E008600FE02868011D81
:1003000029600068210502D580F8008006E02107F9
:1003100002D5A0F8008001E0C0F8008038467EE7F2
:100320002DE9FF5FD2E901A74FF0000891699946D6
:100330001446DDF838B0464601988847054659EA24
:100340000B0005D009E0A169761C01988847054695
:10035000216A284688470028F5D1681C03D05FEA47
:10036000CA7005D015E04FF0FF3004B0BDE8F09F33
:100370002068011D2160D0F800800AE05FEACA70A1
:1003800001D108F8015BA169761C7F1E019888479E
:100390000546002F1ADD681C18D0B9F1000F0DD0EA
:1003A000E81705EBD060421120F01F0059F8221029
:1003B0002A1A012090400142E0D107E0BBF1000F72
:1003C000DCD1216A284688470028D7D0E169019806
:1003D0008847BBF1000F07D1002E05DD5FEACA7028
:1003E00002D1002188F80010A068B84203DDBBF1FB
:1003F000000F03D017B16FF00100B6E73046B4E745
:1004000096230022114600F0BEB800F0004220F012
:100410000040C10DC0F3160040F400007F2901DA4E
:1004200000207047962903DCC1F19601C84001E025
:1004300096398840002AF4D04042704700F00042CC
:1004400030F000400AD0C10D01F56071C0F3160014
:1004500042EA0151C208400711437047002001469B
:10046000704730B50B46014600202022012409E0E8
:1004700021FA02F59D4205D303FA02F5491B04FA5D
:1004800002F52844151EA2F10102F1DC30BD2DE970
:10049000F05F0546002092469B4688460646814608
:1004A00040241BE02846414647462246FFF73AFED5
:1004B00053465A46C01A914110D311461846224657
:1004C00000F05AFA2D1A67EB01084F462246012028
:1004D000002100F051FA17EB00094E41201EA4F153
:1004E0000104DFDC484631462A464346BDE8F09F1A
:1004F0003A2800D2303820F02002412A01D3A2F15C
:100500003700884201D34FF0FF3070470268114432
:100510001378016018467047D1600449516104495D
:10052000116200211161114600F04CBA0D0500085E
:10053000BB090008426842B1016811F8013B23B1D0
:10054000521EC0E90012184670470121C160881E82
:10055000704742685AB1C368016843B983688B42E7
:1005600005D0491E521CC0E90012002070474FF010
:10057000FF3070470029A8BF7047401C490008BFE2
:1005800020F00100704710B4B0FA80FC00FA0CF0C3
:1005900050EA010404BF10BC704749B1CCF12004FB
:1005A00021FA04F411FA0CF118BF01212143084388
:1005B000A3EB0C01CB1D4FEA00614FEA102042BFB4
:1005C000002010BC704700EBC35010440029A4BFAA
:1005D00010BC7047401C490008BF20F0010010BC4F
:1005E00070472DE9FE4F804681EA0300C00F0C469C
:1005F000009021F0004123F00045B8EB0200A94132
:1006000005D24046214690461C460B46024623F042
:100610000040104347D0270DC7F30A00C3F30A5127
:100620000290401A019040286BDAC3F3130040F4A3
:10063000801B0098924620B10023D2EB030A63EBA3
:100640000B0B01985946C0F14002504600F094F956
:1006500006460D4650465946019A00F09CF910EBAB
:1006600008006141002487EA115284EAE7731A43C3
:1006700040D0009A62B3019A012A4FEA075215DC72
:10068000001B61EB02014FF0004202EA0752CDE984
:100690000042001C41F5801132462B4600F037FB2A
:1006A00003B0BDE8F08F40462146F9E7001B61EB3F
:1006B0000201001C41F5801300185B412018A2F5CF
:1006C000001747EB030140EAD570B6196D4111E000
:1006D0006D084FEA360645EAC0754FEA0752001B1F
:1006E00061EB0201001C41F5801149084FEA30001E
:1006F0000019514132462B4603B0BDE8F04F00F0DF
:10070000F7BA0098012240000023D0EB020263EB0D
:10071000E073009821464FEAE074B8EB000061EB0B
:100720000401E9E783F000435BE781F0004158E70B
:100730002DE9FE4F81EA030404F0004421F000415A
:1007400000944FF0000B23F0004350EA01045ED008
:1007500052EA03045BD0C3F30A54C1F30A552C4494
:10076000A4F2F3340194A0FB0254C1F3130141F449
:100770008011C3F3130343F4801301FB024400FB15
:10078000034E840A970A44EA815447EA8357A4FB3C
:10079000076802958D0A05FB07854FEA932C04FB39
:1007A0000C542705029D4FEA065847EA1637B5EB69
:1007B00008056EEB070C870E920E47EA811742EA96
:1007C0008312A7FB0201B6EB0B0164EB00042B0DB7
:1007D00043EA0C335E1844EB1C50DA465146E7FB03
:1007E0000201C5F313044FEA0B3343EA14534FEAF3
:1007F0000432019C43EA0603A4F10C040294009C19
:10080000CDE900B400F083FA03B0BDE8F08F00201A
:100810000146F9E72DE9F04D81EA030404F0004BAD
:1008200021F0004514464FF0000A23F0004150EA41
:10083000050220D054EA01021DD0C5F30A57024632
:10084000C5F31303C1F31300C1F30A5640F4801536
:1008500043F48013A7EB0608101BD64608F2FD38B8
:1008600073EB050002D308F1010801E092185B4127
:10087000B8F1000F03DA00200146BDE8F08D00203A
:100880004FF48011064684460EE0171B73EB0507F4
:1008900005D3121B63EB050306434CEA010C490820
:1008A0004FEA300092185B4150EA0107EDD152EA5D
:1008B000030012D082EA040083EA0501084305D050
:1008C000101BAB4106D20122002306E000224FF0AC
:1008D000004302E06FF0010253101AEB06004CEBEC
:1008E000085110EB0A0041EB0B01BDE8F04D00F0A0
:1008F000FFB9C1F30A52C1F3130140F2FF3341F4CF
:1009000080119A4202DA00200146704740F23343D8
:100910009A42A2F2334202DC5242FFF703BC00F0DB
:100920002BB8000030B5041E71F1000404DB4FF059
:100930000044404264EB0101141E73F1000405DB26
:100940001C464FF00043524263EB0403994208BF38
:10095000904230BD064C074D06E0E06840F00103D0
:1009600094E8070098471034AC42F6D3FFF7C2FB77
:100970008C570008AC570008202A04DB203A00FA04
:1009800002F1002070479140C2F1200320FA03F3E6
:10099000194390407047202A06DBCB17203A41FAD2
:1009A00002F043EAE07306E041FA02F3D040C2F1FC
:1009B00020029140084319467047C0B24FF4F051ED
:1009C00000F0F4B92DE9F34F8BB04FF0000801F1BE
:1009D0000C000C464FF0010B46460DF1080A019041
:1009E0006269012101989047051E2DD0252D2CD03C
:1009F000216A8847C0B16269012101989047216A44
:100A000088470028F7D1411E62690198904700E0AD
:100A1000761CA1690B988847216A88470028F7D17E
:100A2000E1690B988847DBE7A1690B98884707467F
:100A3000A84201D1761CD3E7E1690B9888477F1C57
:100A400002D1B8F1000F6FD046E1002762693D4640
:100A50003946019890472A2804D1626901210198FA
:100A600090470125DFF8849262690121019890473F
:100A7000A0F130010A290AD24F45E5DC07EB8701D6
:100A800000EB4107303FDFD445F01005ECE7E90605
:100A900001D46FF000476C280AD04C2814D0682885
:100AA00015D06A280DD074281CD07A281AD01DE0E1
:100AB00062690121019890476C2802D045F0040535
:100AC00014E045F002050DE045F020050AE06269FA
:100AD000012101989047682802D045F0080505E0FB
:100AE00045F400656269012101989047C4E9015706
:100AF00065283DD019DC58287AD00CDC452837D041
:100B000004DC252826D0412831D131E046282FD0D9
:100B100047282CD12CE05B2877D0612828D0632887
:100B20007CD0642823D15AE0D0E06F2848D008DC7C
:100B300066281DD067281BD0692821D06E2816D1C1
:100B400027E0702845D0732868D0752847D07828CA
:100B50000DD14DE0A1690B988847054625283FF443
:100B600069AFE1690B9888476D1C3FF46AAFB3E049
:100B700023466A466FF001000B99AFF300809EE0B8
:100B800045F040006060A80723464FF0000236D4CD
:100B90003EE0E8077FF447AF2068011D2160006850
:100BA000290501D506701BE7290701D5068017E73F
:100BB000A90703D5F117C0E9006111E706600FE747
:100BC00045F040006060A80723464FF0080216D4A5
:100BD0001EE040F60E0125EA0100606016E045F0D7
:100BE00040006060A80723464FF00A0207D40FE0D8
:100BF00045F040006060A80708D5234610226FF03A
:100C000001000B99AFF3008059E007E02346102262
:100C10006FF001000B99FFF7DDFA50E04FF000098B
:100C20004F464B46632802D05B2806D040E0E806DA
:100C300001D40120A06001273AE0626901210198F6
:100C400090475E2805D14FF0010962694946019835
:100C50009047216939B900210A46534643F82120BB
:100C6000491C0829FADBB0B3216969B9C11700EB47
:100C7000D16253110AEB830122F01F02821A012074
:100C80000B68904003430B60626901210198904713
:100C90005D28E8D1B9F1000F09D00020514651F884
:100CA0002020D24341F82020401C0828F7DB02AB6B
:100CB000224600976FF001000B99FFF731FB0028E7
:100CC0000CDA401C08D1BBF1000F05D04FF0FF300B
:100CD0000DB0BDE8F08FFFE74046F9E7E90701D125
:100CE00008F1010806444FF0000B79E6CCCCCC0C9F
:100CF00010B5141E73F1000408DA401C41F1000124
:100D000092185B411A4301D120F0010010BD2DE97A
:100D1000F04D92469B4611B1B1FA81F202E0B0FA71
:100D200080F220329046FFF727FE04460F4640EA45
:100D30000A0041EA0B0153465A46084313D01146B4
:100D400053EA010019D0C8F140025046FFF7EAF912
:100D500005460E46504659464246FFF70DFE0843EB
:100D600005D0012004E020463946BDE8F08D002082
:100D7000054346EAE0762C4337430A986305E40AC4
:100D8000A0EB08000022FD0A44EA47540A3002D5CD
:100D900000200146E9E7010510196941DDE9084530
:100DA00000196941BDE8F04DA2E700007F2801D994
:100DB000002208E0064A02EB5002C007127800D178
:100DC000120902F00F020120904008407047000015
:100DD000A055000870B5044600688168C943C9077A
:100DE00017D1816821F00101816000F043FD0546C3
:100DF0000AE000BF00F03EFD401B022804D9206835
:100E00008068C043C00706D020688068C043C00720
:100E1000F0D0002070BDA06A40F01000A062E06A2F
:100E200040F00100E062012070BD0000F8B500262E
:100E30000446009600688168C943C9072DD08168BF
:100E400041F001018160164816490068B0FBF1F0DD
:100E500000E0401E00900028FBD100F00BFD05468D
:100E600016E000BF00F006FD401B022810D92068E4
:100E70008068C043C0070BD0A06A40F01000A06299
:100E8000E06A40F00100E06284F824600120F8BDCF
:100E900020688068C043C007E4D10020F8BD00008E
:100EA0000C00002040420F00FEE7000070B5002457
:100EB000134D04E0641CE4B2012003F0BBF92021CF
:100EC000284600F0C5FC08B1642CF3D3002404E0EC
:100ED000641CE4B2012003F0ADF92021284600F0A3
:100EE000B7FC08B9642CF3D3282003F0A3F9202120
:100EF000284600F0ADFC002800D0012070BD0000A5
:100F00000008014070B5002004464006050EFFF7BA
:100F1000CDFF641C2843E4B2082CF6D370BD00005A
:100F200070B50024154D04E0641CE4B2012003F008
:100F300081F92021284600F08BFC10B1642CF3D3FA
:100F400001E0642C01D30EA00EE0002404E0641C38
:100F5000E4B2012003F06EF92021284600F078FC6D
:100F600030B1642C07D310A002F0C0FC012070BD8A
:100F7000642CECD3F7E7002070BD000000080140AE
:100F800054686520686F737420726563656976655F
:100F900073206E6F20726573706F6E736520736956
:100FA000676E616C210D0A0044485431312068613C
:100FB00073206E6F74207265636569766564206165
:100FC000207374617274207369676E616C210D0AFD
:100FD000000000002DE9F04788465FEA00090BD0C9
:100FE000B8F1000F08D000F03DF8FFF799FF30B1DD
:100FF0006FF00100BDE8F0874FF0FF30FAE7FFF730
:1010000081FF0746FFF77EFF0646FFF77BFF054699
:10101000FFF778FF0446FFF775FFB919294421440B
:10102000814202D06FF00200E4E707EB4700C0EB1B
:10103000C71006EBC0004FF47A76B0FBF6F0FFF76E
:10104000DFF9C8F8000005EB4500C0EBC51004EB64
:10105000C000B0FBF6F0FFF7D3F9C9F8000000209C
:10106000C8E700002DE9FF412025032700240126C1
:1010700003970095DFF84080CDE90164694640465A
:1010800000F0F6FA00222021404600F0EEFB14208A
:1010900000F0DCFA01222021404600F0E6FB1E2091
:1010A00003F0C8F801AA009582E8D00069464046DE
:1010B00000F0DEFABDE8FF8100080140704772B61B
:1010C000FEE70000F8B50024009490F8242025469F
:1010D000012A12D0012280F824204A681F23072AFF
:1010E0000DD20668776B521E02EB820293409F433B
:1010F0000B6893401F43776319E00220F8BD066830
:101100000D2A0AD2376BD21F02EB820293409F4313
:101110000B6893401F43376309E0F76A0D3A02EB0F
:10112000820293409F430B6893401F43F7620A6813
:10113000072306680A2A0AD3F7680A3A02EB420232
:1011400093409F438B6893401F43F76008E03769E3
:1011500002EB420293409F438B6893401F433761E9
:101160000A68102A01D0112A20D1124B02689A4233
:1011700017D193681B0219D4936843F4000393605A
:101180000968102912D10C490C4A0968B1FBF2F127
:1011900001EB8101490000E0491E00910029FBD1CB
:1011A00004E0816A41F020018162012480F824502A
:1011B0002046F8BD002401400C00002040420F00F2
:1011C0000068C06C704700002DE9F0414FF0000747
:1011D00004003D467ED0A06A002628B9E66284F865
:1011E0002460204600F07EF82046FFF7F3FDA16A58
:1011F00001F01001014304D0A06A40F01000A06289
:1012000068E0A16A21F4885141F00201A16262689C
:10121000E169237B0A4347EA43010A43A1684FF48B
:101220008077B94208D0012906D0002194F814C073
:10123000BCF1010F02D00AE03946F7E7F3B1A36A27
:1012400043F02003A362E36A43F00103E3622368EF
:10125000D3F804C02CF4694C4CEA010CC3F804C068
:1012600023689968DFF870C001EA0C0111439960A6
:10127000A168B9420BD0012909D00CE0DFF85CC0AD
:10128000A3690CEB43330B4343F40061DFE7218A8E
:101290000D05A5F580152168CB6A23F470032B4357
:1012A000CB62216889680E4B1940914208D1E662F1
:1012B000A16A21F0020141F00101A162BDE8F081C3
:1012C000A06A20F0020040F01000A062E06A40F046
:1012D0000100E0620120F1E7FDF7E1FF00E0FFFF20
:1012E000FE0E1FFF00B585B0002100910191029113
:1012F000039100680E49884218D10E48816941F473
:1013000000718161816901F400710491816941F08A
:10131000040181618069694600F00400049007209F
:10132000009003200190044800F0A2F905B000BD30
:101330000024014000100240000801402DE9F8435C
:1013400000270D460446009700F094FA8046206876
:101350008168C90508D5A06A40F02000A06284F821
:1013600024700120BDE8F8834168C90503D4C06A30
:1013700010F4700F2AD0022000F0B2FC3B4909683B
:10138000B1FBF0F62068036939490B424FEA61016D
:101390004FEAA1121FD1C3684FEA611C13EA0C0F78
:1013A00019D103690B4225D1C068104222D1142003
:1013B00023E0681C0AD02DB100F05CFAA0EB080015
:1013C000A84203D920680068800725D520680068F6
:1013D0008007EED52DE003690B4202D1C1681142AE
:1013E00006D0026923490A4206D1C068084203D1E7
:1013F000542002E0292000E0FC204643009816E03B
:10140000681C11D02DB100F035FAA0EB0800A842FD
:101410000AD90098B04207D2A06A40F00400A06246
:1014200084F8247003209DE70098401C0090B0428F
:10143000E6D321686FF012000860A06A40F40070E3
:10144000A06220688068C0F3424007280CD1207B4E
:1014500050B9A06A20F48070A062A06AC00403D4CE
:10146000A06A40F00100A06200207BE70C00002091
:10147000244992244992240070B5044690F824002F
:1014800001280DD0012084F824002046FFF7CEFC6F
:1014900002004FF0000005D084F82400104670BD13
:1014A000022070BDA16A40F20123994341F480718A
:1014B000A1621F4D23681F49AB4218D10E6816F474
:1014C000702F14D0A66A46F48016A6620E687605C0
:1014D00005D5A66A26F4005646F48056A662A66A8A
:1014E000F6040AD5E66A26F00606E66206E0A66A73
:1014F00026F48016A6625E68E9E7E06284F82400BC
:101500006FF00200186020688368C3F34243072B22
:1015100005D1A84208D1096811F4702F04D0816860
:1015200041F480118160B9E7816841F4A001F9E7D5
:10153000002801400424014010B5044690F824001E
:10154000012807D0012084F824002046FFF742FC40
:1015500010B107E0022010BDA16A21F4885141F0CA
:101560000101A162002184F8241010BD10B590F88B
:1015700021100022022905D00421816380F8202057
:10158000012010BD01680B6823F00E030B60016899
:101590000B6823F001030B6090F84030C46B01210D
:1015A00001FA03F3636080F8211080F820201046D0
:1015B00010BD000010B590F821100024022903D0BE
:1015C0000421816301243DE001680A6822F00E02D3
:1015D0000A6001680A6822F001020A601A4A01687A
:1015E000914201D1012121E0174A1432914201D1E7
:1015F00010211BE0144A2832914201D1891515E0CF
:10160000114A3C32914201D189140FE00E4A503206
:10161000914202D14FF4803108E00B4A643291428A
:1016200002D14FF4801101E04FF08071064A083A70
:101630005160012180F82110002180F82010416BB9
:1016400001B18847204610BD0800024070B504462D
:1016500000F010F90546601C02D0044800780444EC
:1016600000F008F9401BA042FAD370BD0000002032
:101670002DE9F84FDFF8B891002409F1040A0AF1C6
:10168000040B23460F270BF1040EC9E00125A540EA
:101690002A40AA427DD1674ED1F804C0ACEB0608BF
:1016A000B44532D014DCBCF1030F3AD009DCBCF1F4
:1016B000000F2AD0BCF1010F1CD0BCF1020F31D1B8
:1016C0001DE0BCF1110F17D0BCF1120F2AD119E0A7
:1016D000B8F5881F19D006DCB8F5803F15D0B8F5ED
:1016E000801F1FD111E0B8F5001F0ED0B8F5041F00
:1016F00018D10AE0CB6815E0CB681B1D12E0CB685F
:1017000008330FE0CB680C330CE08B682BB1012B56
:101710004FF0080303D0456104E0042302E00561B3
:1017200000E00023FF2A01D8064601E000F104068C
:101730004FEA840501D9A5F12005D6F8008007FA03
:1017400005FC28EA0C0803FA05F548EA0508C6F87E
:1017500000804D68ED0062D5374DAE6946F0010658
:10176000AE61AD6924F0030605F001050095334D27
:1017700006EB050CDCF80850A607360F07FA06F84A
:1017800025EA0805DFF8B880404503D14FF000088E
:1017900017E044E0DFF8AC80404502D14FF001088B
:1017A0000FE0DFF8A480404502D14FF0020808E0C6
:1017B000DFF89880404502D14FF0030801E04FF078
:1017C000040808FA06F848EA0508CCF808804D68CD
:1017D000D9F80060ED034D4601D5164300E096436D
:1017E0002E604D68DAF80060AD03554601D516430A
:1017F00000E096432E604D68DBF80060ED025D4628
:1018000001D5164300E096432E604D68DEF8006077
:10181000AD02754601D5164300E096432E60641C68
:101820000D682A46E5407FF431AFBDE8F88F00002F
:1018300000040140000011100010024000000140AF
:1018400000080140000C014000100140001401405C
:101850008068084000D001207047C26821EA020376
:101860000A4043EA0241016170470AB101617047D1
:101870000904FBE701488068704700000000002071
:1018800070B5040025D094F83D00002520B984F8F7
:101890003C50204600F04EF9242084F83D0020689A
:1018A000016821F0010101602068016841F40041F4
:1018B00001602068016821F40041016000F080FBB4
:1018C0004D4A6168914201D84C4900E04C49884238
:1018D00001D2012070BD4B492368B0FBF1F15E6875
:1018E00026F03F060E435E606368934206D94FF4CC
:1018F000967359434FF47A73B1FBF3F12368491C93
:101900001E6A26F03F06314319626168914210D881
:101910004900401EB0FBF1F2521CC2F30B02042A34
:1019200001D2042022E0B0FBF1F0401CC0F30B0018
:101930001CE0A268F2B301EBC10303EB0116431EE6
:10194000B3FBF6F35B1C43F480431B0549D092B311
:1019500001EBC10202EB0111401EB0FBF1F0401C93
:10196000C0F30B0040F4804040F400402168CA6995
:101970004CF6FF739A431043C861D4E90710014342
:101980002068026822F0C00211430160D4E903011B
:1019900001432068826848F2FF339A431143816013
:1019A000D4E9050108432168CA6822F0FF02104308
:1019B000C86001E00EE016E02068016841F0010116
:1019C00001602564202084F83D00256384F83E50A2
:1019D000002070BD01EB4106431EB3FBF6F35B1C18
:1019E000B3E70120C2E701EB4101401EB0FBF1F07B
:1019F000401CC0F30B00B7E7A086010080841E00E6
:101A000000093D0040420F002DE9F84F1F46904667
:101A10008A460446DDF82890FFF72CFF054694F827
:101A20003D0020287FD119230122404920460095FE
:101A300001F02EFA002876D194F83C00012872D0EB
:101A4000012084F83C0020680168C90703D10168BF
:101A500041F0010101602068016821F4006101602A
:101A6000212084F83D00102084F83E0000262664E2
:101A7000C4F824806785608D20852D48E0622B4660
:101A80004A465146204601F08FF990B920684169D5
:101A90008069009036E02A464946204601F077FAF0
:101AA00050B1206C042804D12068016841F4007111
:101AB00001600120BDE8F88F606A21680078086144
:101AC000606A401C6062618D491E6185218D491EDE
:101AD00089B2218522685369DB435B070BD451B17E
:101AE00000781061606A401C6062608D401E6085F5
:101AF000208D401E20852A464946204601F0A2F945
:101B00000028CED1208D0028C5D154F83D0B0168A6
:101B100041F400710160202004F81E09E677667721
:101B20000020C7E7FFE70220C4E700000200100022
:101B30000000FFFF10B586B00021009101910291D5
:101B4000039100681349884222D1134CA06940F0E8
:101B50000800A061A069694600F0080004904FF4F5
:101B60004070009012200190032003900B48FFF773
:101B70007FFD0B48416841F0E06141F002014160A6
:101B8000E06940F40010E061E06900F400100490A6
:101B900006B010BD0054004000100240000C01408F
:101BA000000001400248816802781144816070475A
:101BB00000000020074810B5016841F010010160E5
:101BC000032000F075F80F2000F006F800F024F86C
:101BD000002010BD0020024070B50D4D04464FF4AA
:101BE0007A712878B1FBF0F00A490968B1FBF0F08E
:101BF00000F053FC48B9102C07D200222146501E99
:101C000000F036F800206C6070BD012070BD00004F
:101C1000000000200C0000200C4808B5816941F04C
:101C200001018161816901F001010091C16941F007
:101C30008051C161C06900F0805000900448416843
:101C400021F0E06141F00071416008BD00100240E8
:101C500000000140002809DB00F01F020121914033
:101C60004009800000F1E020C0F80011704700003A
:101C7000F0B40E4B1B680C46C3F30223C3F10705F7
:101C8000042D00D90425191D072901D2002300E0E5
:101C9000DB1E012606FA05F1491E214099409E40AF
:101CA000761E16403143F0BC01F056BE0CED00E04C
:101CB000064900F0070208684FF6FF03184040EAA3
:101CC0000220034A10430860704700000CED00E05A
:101CD0000000FA05014901200862704700000E4229
:101CE00010B529A401461DCC86B08DE81D002AA0A0
:101CF0002A4C006804900020012923D002293AD000
:101D000010291DD161682268D20119D5C1F383421F
:101D1000C9031DF8020009D5616804AAC1F3404156
:101D2000515C1F4AB2FBF1F1484301E01D494843B1
:101D30006168490204D440005FF00301B0FBF1F098
:101D400006B010BD226AC2F30121012903D1920716
:101D500001D5C803F4E7022905D1626A920702D5CA
:101D600049F64040ECE70329EAD121688903E7D529
:101D70004FF22440E4E700F033F96168C1F38131A8
:101D8000491C4900DAE700000203040506070809B8
:101D90000A0B0C0D0E0F1010010200000010024083
:101DA00000127A0000093D002DE9F843054600784D
:101DB000354CC00754D0E0690026C00008D4E06963
:101DC00040F08050E061E069012600F08050009012
:101DD0002E480168C90512D40168804641F480711B
:101DE0000160FFF747FD074605E000BFFFF742FD32
:101DF000C01B642823D8D8F80000C005F6D5206A97
:101E000010F4407021D0A98801F4407181421CD0A7
:101E1000206A1F49012220F440700A6000220A60F3
:101E20002062C00711D0FFF725FD074641F2883830
:101E300008E000BFFFF71EFDC11B414502D903208A
:101E4000BDE8F883206A8007F4D5206A696820F429
:101E50004070084320621EB1E06920F08050E061CC
:101E60002878800705D56068A96820F440400843B9
:101E700060602878C00605D56068E96820F48000B5
:101E8000084360600020DBE7001002400070004063
:101E9000400442422DE9F0470F46050061D0434E11
:101EA000306800F00700B84209D2306820F007001F
:101EB00038433060306800F00700B84251D12868DC
:101EC0003B4C810712D5400703D5606840F4E060C1
:101ED00060602878000703D5606840F46050606057
:101EE0006068A96820F0F000084360602878C007A7
:101EF00028D06868012810D02168022810D08907EE
:101F000000292EDA616821F0030101436160FFF7C7
:101F1000B1FC804641F288390DE021688903EFE782
:101F20008901EDE7FFF7A6FCA0EB0801494502D9BE
:101F30000320BDE8F0876068696800F00C00B0EB32
:101F4000810FEFD1306800F00700B8420BD930683C
:101F500020F0070038433060306800F00700B842D6
:101F600001D00120E5E72878400705D56068E968D9
:101F700020F4E060084360602878000706D56068B8
:101F8000296920F4605040EAC100606000F038F830
:101F90006168084AC1F30311515CC84006490860F2
:101FA00006480068FFF718FE0020C2E70020024044
:101FB00000100240144D00080C0000200400002016
:101FC0000448054900684968044AC1F30221515C8C
:101FD000C84070470C00002000100240244D00084B
:101FE0000448054900684968044AC1F3C221515CAC
:101FF000C84070470C00002000100240244D00082B
:1020000012A185B00FC98DE80F0014A0144A006812
:1020100004905168134801F00C03042B10D0082BD6
:102020000ED1C1F38343C9031DF803000AD55168DB
:1020300004AAC1F34041515C0A4A5043B0FBF1F09D
:1020400005B0704708494843FAE700000203040559
:10205000060708090A0B0C0D0E0F101001020000F4
:102060000010024000127A0000093D002DE9F84FEF
:10207000040070D02078C04DC00749D06868C0F314
:102080008100012807D06868C0F38100022809D1C7
:102090006868C00306D52868800339D560680028C1
:1020A000E7D035E06068B0F5803F0BD010B1B0F5F7
:1020B000A02F11D0286820F480302860286820F4F0
:1020C000802002E0286840F480302860606890B189
:1020D000FFF7D0FB06460AE0286840F4802028601D
:1020E000F0E700BFFFF7C6FB801B642873D82868A1
:1020F0008003F7D50CE0FFF7BDFB064605E000BF07
:10210000FFF7B8FB801B6428F0D828688003F7D459
:1021100020789A4E80074FF001094FF0000839D51A
:10212000686810F00C0F07D06868C0F381000228BF
:1021300009D16868C00306D42868800714D52069CF
:10214000012808D110E02069B0B1C6F80090FFF76F
:1021500091FB074605E00AE1FFF78CFBC01B022854
:10216000C4D828688007F7D52868616920F0F8008E
:1021700040EAC10028600DE0C6F80080FFF77AFB56
:10218000074604E0FFF776FBC01B022823D8286827
:102190008007F7D4207800072CD57948A169D9B1F8
:1021A000C0F80090FFF766FB074604E0FFF762FB0C
:1021B000C01B02280FD8686A8007F7D571484FF412
:1021C000FA510068B0FBF1F0009000BF0098411E8A
:1021D0000091FAD20EE080E0C0F80080FFF74AFBE1
:1021E000074604E0FFF746FBC01B022875D8686A63
:1021F0008007F7D42078400760D5E8690027C00041
:1022000008D4E86940F08050E861E869012700F0EF
:10221000805000905C480168C90513D4016883466A
:1022200041F480710160FFF725FB824606E000BFA4
:10223000FFF720FBA0EB0A0064284ED8DBF8000073
:10224000C005F5D5E06801280AD008B1052813D0EB
:10225000286A20F001002862286A20F0040002E0C9
:10226000286A40F001002862E06841F2883B98B19A
:10227000FFF700FB82460BE0286A40F0040028626A
:10228000EEE700BFFFF7F6FAA0EB0A0159455AD86E
:10229000286A8007F6D50CE0FFF7ECFA824605E0E5
:1022A000FFF7E8FAA0EB0A0159454CD8286A8007E5
:1022B000F6D41FB1E86920F08050E861E06988B386
:1022C0006968C1F38101022944D00228C6F8608000
:1022D00004D0FFF7CFFA044638E034E0FFF7CAFA3B
:1022E000074604E0FFF7C6FAC01B02282BD828686F
:1022F0008001F7D4206AB0F5803F05D16868A168F5
:1023000020F4003008436860D4E908010843696894
:1023100021F4741108436860C6F86090FFF7AAFAC8
:10232000044606E025E000BFFFF7A4FA001B0228E0
:1023300009D828688001F7D51BE000BFFFF79AFA9B
:10234000001B022802D90320BDE8F88F286880010D
:10235000F4D40EE00128F7D06868226A00F48031D6
:10236000914204D1616A00F47010884201D00120CA
:10237000EAE70020E8E700000010024000004242C7
:10238000800442420C0000200070004070B5040040
:1023900003D0607C002610B105E0012070BD2674DA
:1023A000204600F043F802206074204600F058F800
:1023B000042578BB204601F097F858BB2068416897
:1023C00021F007014160A06820B11748016821F0A1
:1023D000010101601448001F0168A26821F46071C6
:1023E000114301606068411C04D10120FFF778FCB3
:1023F00080B1401E21688A6822F00F0242EA104232
:102400008A602168CA6860F30F02CA60204601F042
:1024100085F808B16574C0E7E67301206073A073A6
:102420006074002070BD0000306C004008B500688A
:10243000084988420DD1FFF74DFC0748C16941F0BA
:102440000061C161C069054900F000600090012091
:10245000086008BD00280040001002403C044242D1
:1024600070B504000AD02068416821F0080141607D
:10247000FFF700FA05464FF47A7608E0012070BDB8
:10248000FFF7F8F9401BB04201D9032070BD206866
:1024900040680007F4D5002070BD10B5401EB0F1B3
:1024A000807F01D3012010BD4FF0E02460610F2137
:1024B000601701F051FA0020A06107202061002080
:1024C00010BD70477047000070B590F83C20012A9D
:1024D00026D0012480F83C40022280F83D20036889
:1024E0005A689D6822F070060A6832435A600D4BA4
:1024F00002689A4208D0B2F1804F05D00A4B9A4246
:1025000002D00A4B9A4204D1496825F0800319434E
:10251000916080F83D40002180F83C10084670BD75
:10252000022070BD002C0140000400400008004063
:1025300010B5040003D094F83D0010B107E001206D
:1025400010BD002084F83C00204600F01FF8022057
:1025500084F83D00211D206801F048F8012084F82E
:10256000460084F83E0084F83F0084F8400084F878
:10257000410084F8420084F8430084F8440084F861
:10258000450084F83D00002010BD000008B500683B
:10259000B0F1804F12D10A48C16941F00101C16117
:1025A000C069002200F00100009011461C20FFF7D6
:1025B0005FFBBDE808401C20FFF74CBB08BD0000D6
:1025C0000010024090F83D10012901D00120704711
:1025D000022180F83D100168CA6842F00102CA6019
:1025E00000680B49884208D0B0F1804F05D00949F6
:1025F000884202D00849884204D1816801F007016D
:10260000062903D0016841F00101016000207047F4
:10261000002C0140000400400008004070B5044652
:1026200090F83C00012817D0012584F83C50022086
:1026300084F83D002068826822F0770222F47F420D
:1026400082600868502830D00DDC20284DD005DC91
:1026500098B310283BD148E0022070BD302844D008
:10266000402834D139E0602828D0702806D0B0F551
:10267000805F2CD0B0F5005F29D10AE0CB68D1E9AA
:102680000121206800F0E8FF2068816841F07701AF
:1026900009E0CB68D1E90121206800F0DDFF206866
:1026A000816841F48041816011E0CA68496820680E
:1026B00000F0E4FF5021206807E016E0CA6849688E
:1026C000206800F0ECFF6021206800F0CFFF84F864
:1026D0003D50002084F83C0070BDCA6849682068FD
:1026E00000F0CCFF40212068EFE722680146104649
:1026F000EBE7704770B50446006801694FF00005CC
:10270000C943890715D4C168C943890711D4E91E93
:10271000016101202077206880698007204602D06F
:10272000FFF7E7FF04E000F098F8204600F096F885
:10273000257720680169C943490717D4C168C9438F
:10274000490713D46FF0040101610220207720684B
:10275000806910F4407F204602D0FFF7CAFF04E0F2
:1027600000F07BF8204600F079F8257720680169B1
:10277000C943090716D4C168C943090712D46FF0C9
:1027800008010161042020772068C0698007204685
:1027900002D0FFF7AEFF04E000F05FF8204600F043
:1027A0005DF8257720680169C943C90617D4C16857
:1027B000C943C90613D46FF01001016108202077C6
:1027C0002068C06910F4407F204602D0FFF791FFD7
:1027D00004E000F042F8204600F040F82577206839
:1027E0000169C943C90708D1C168C943C90704D1F0
:1027F000891E0161204600F033F820680169C94351
:10280000090609D4C168C943090605D46FF08001DF
:1028100001612046FFF755FE20680169C94349065A
:1028200009D4C168C943490605D46FF0400101616C
:10283000204600F041F820680169C94389060BD49D
:10284000C168C943890607D46FF0200101612046A1
:10285000BDE87040FFF736BE70BD7047704700009E
:1028600013490068096888421AD112480A228188EF
:10287000491C89B2B1FBF2F302FB131381800122E0
:102880000BB98270C27064290BD0C8290BD0B1F586
:10289000967F0AD0B1F5C87F02D3C2800021818023
:1028A0007047027070474270704782707047000036
:1028B000E0000020100000207047704770470000C3
:1028C000F8B5026804461068D168536910F00F0F1C
:1028D0004FF0000554D003F0010601F49077374320
:1028E0005FD0C20705D0CA0503D5226C42F00102B1
:1028F0002264420705D5DA0703D0226C42F00202B7
:102900002264820705D5DA0703D0226C42F0040264
:102910002264020707D501F02002324303D0226C63
:1029200042F008022264226C002A35D0800604D5C9
:10293000880602D5204600F0E4FE20684069216C3C
:10294000C0F3801001F008010143204625D000F0BB
:10295000C0FE2068416949061BD5416921F040014C
:102960004161A06BA8B158494163A06BFEF722FEFC
:10297000002811D0A06B416B01B0BDE8F0400847C2
:1029800083060ED58B060CD52046BDE8F84000F036
:10299000B8BE2046FFF792FFF8BDFFF78FFF256412
:1029A000F8BD266B2023012E52D1C60650D5CE0687
:1029B0004ED5106850680090506940062AD5A16B2A
:1029C000086840680004000CEAD0A68D8642E7D96A
:1029D000E0858869202818D0D06820F48070D06005
:1029E0002068416921F0010141612068416921F0BD
:1029F0004001416184F83E3025632068C16821F0C0
:102A00001001C160A06BFEF7B1FDA08DE18D401AF1
:102A100081B219E0A08DE18D401A81B2E08D0028CD
:102A2000BED00029BCD0D06820F49070D06020685F
:102A3000426922F00102426184F83E302563206839
:102A4000C26822F01002C2602046FFF736FFF8BDD0
:102A500005062BD50D0629D594F83D002128F6D181
:102A6000A068B0F5805F01D12069B0B1206A411C37
:102A70002162216800784860E08C401E0004000C50
:102A8000E084E4D12068C16821F08001C160206841
:102A9000C16841F04001C160F8BD206A0088C0F300
:102AA00008005060206A801C2062E5E74006F3D5EC
:102AB0004806F1D5D168204621F04001D16084F864
:102AC0003D3000F058F9F8BDC336000870B5040079
:102AD00004D094F83D00002510B106E0012070BD3F
:102AE00084F83C50204600F023F8242084F83D0070
:102AF0002068C16821F40051C160204600F05CFEEE
:102B00002068016921F4904101612068416921F048
:102B10002A0141612068C16841F40051C160256407
:102B2000202084F83D0084F83E00002070BD0000A5
:102B300070B586B000240094019402940394036855
:102B40002B482A4E022103220515B34221D1836965
:102B500043F480438361836903F48043049383696E
:102B600043F0040383618069224E00F00400049066
:102B70000802CDE90001039269463046FEF778FD70
:102B8000CDE90054694630460294FEF771FD06B067
:102B900070BD194EB342FAD1C36943F48023C361B7
:102BA000C36903F480230493836943F008038361BA
:102BB0008069CDE9005100F00800CDE903200F4DF8
:102BC00069462846FEF754FDE814CDE9000469463D
:102BD00028460294FEF74CFD002211462720FFF7FD
:102BE00047F82720FFF736F8D1E70000003801400A
:102BF000001002400008014000480040000C014065
:102C00002DE9F84F044690F83E009A4616460D46C8
:102C1000202853D1FDB1F6B194F83C0001284DD0E5
:102C2000012084F83C0000272764222084F83E001D
:102C30002763FEF71FFEA6858146E685A0684FF450
:102C40008058404501D1206940B12E465FF0000513
:102C500084F83C7027E00120BDE8F88F0026F7E7F4
:102C60004B46002220212046CDF800A000F000FEB7
:102C700008B10320F0E726B1A06840451BD038B169
:102C800008E020684068C0F3080025F8020B07E060
:102C9000206980B12068406800F07F0006F8010BD1
:102CA000E08D401EE085E08D0028D9D1202084F8F9
:102CB0003E000020D0E720684068EFE70220CBE725
:102CC000704700002DE9F843044690F83D001F4688
:102CD00016460D4620284CD1C5B1BEB194F83C0033
:102CE000012846D0012084F83C004FF00008C4F8C9
:102CF0004080212084F83D00FEF7BCFDA68481467B
:102D0000E684A068B0F5805F03D004E00120BDE850
:102D1000F883206928B12E465FF0000584F83C80D6
:102D20000EE00026FAE78021204600F0A1FDA0B9C0
:102D3000AEB116F8010B21684860E08C401EE084BB
:102D4000E08C4B464FF0000200970028EBD14FF08B
:102D50004001204600F08CFD30B10320D7E735F864
:102D6000020BC0F30800E6E7202084F83D000020B5
:102D7000CDE70220CBE77047FEE701684A69D243FE
:102D800052050FD46FF480624A61002140F8301F71
:102D9000202242738173026942F0040202610173CE
:102DA0000120704700207047F8B50446C06A1E46EF
:102DB0000D461746082807D0012805D010F5803F9A
:102DC00002D0206B122804D12068016841F4807180
:102DD0000160134600224FF001112046009600F0DA
:102DE00057F840B120680068C00502D54FF4007064
:102DF00020640320F8BD2069B0F5804F0ED0062076
:102E0000216800EAD51040F0F000086133463A46E8
:102E10000B49204600F070F878B902E005F0FE009A
:102E200000E0E8B221680861054933463A46891F47
:102E3000204600F061F80028DCD00120F8BD000039
:102E40000800010070B516460D4604460DE0204608
:102E5000FFF793FF08B1012070BD681C05D0FEF795
:102E600009FD801BA84207D835B120684069C043DE
:102E70004007ECD4002070BD002044F8300F202122
:102E80006173A073216941F0200121612073E2E7A1
:102E90002DE9F0471E4690460D460446C1F307470C
:102EA000DDF8209008E0701C06D0FEF7E3FCA0EBF4
:102EB0000900B0420FD876B12068012F18D0806980
:102EC00025EA00000004000C14D000214145EAD09E
:102ED0000020BDE8F087002044F8300F2021617306
:102EE000A073216941F02001216120730120F0E7E6
:102EF0004069E5E70121E9E72DE9F0479A46914667
:102F00000E46044600254FF02008C1F3074725E090
:102F100020684069C043400514D42068016841F42A
:102F20000071016021686FF480604861256384F856
:102F30003D8084F83E50206C40F00400206484F80A
:102F40003C501FE0B9F1FF3F08D0FEF793FCA0EB27
:102F50000A0149450CD8B9F1000F09D02068012FAA
:102F600013D0806926EA00000004000C0BD0CFE7E4
:102F700044F8305F84F80D80A573206940F020008C
:102F8000206125730120BDE8F0874069EAE770B54C
:102F900016460D4604460DE02046FFF7EEFE08B14A
:102FA000012070BD681C05D0FEF764FC801BA842A0
:102FB00007D835B120684069C0430006ECD4002032
:102FC00070BD002044F8300F20216173A073216987
:102FD00041F0200121612073E2E70000FEB50025E9
:102FE0001C48009501951A49029501608915816078
:102FF000057301240475032606614FF460214560C2
:10300000C0E90641FEF7E0F808B1FEF758F80520E0
:103010000095CDE9014069460E48FEF753F808B126
:10302000FEF74DF80094022469460A480194FEF721
:1030300049F808B1FEF743F8CDE90046694605486E
:10304000FEF740F8002801D0FEF739F8FEBD000079
:1030500000240140480000202DE9F04385B0002500
:103060002E480095019502950395816941F0100164
:103070008161816901F010010491816941F02001B1
:103080008161816901F020010491816941F00401AD
:103090008161816901F004010491816941F00801B5
:1030A00081618069DFF8788000F0080004900022D8
:1030B00020214046FEF7D9FB012240214046FEF781
:1030C000D4FB0122DFF85C90170339464846FEF72F
:1030D000CCFB2020012402268DE871006946404681
:1030E000FEF7C6FA4020CDE90004CDE90246694664
:1030F0004046FEF7BDFACDE90074CDE902466946C7
:103100004846FEF7B5FA6003CDE900056946484632
:103110000295FEF7ADFA05B0BDE8F083001002405D
:1031200000080140000C01400D4810B50B4901603A
:103130000C49416000214FF480428160C0E90312D4
:1031400041618161C1610162FEF79AFB002803D0F1
:10315000BDE81040FDF7B3BF10BD000000540040B3
:1031600078000020A08601000A4810B508490160D7
:103170004FF0FF3141604FF480718160FFF706F935
:10318000002803D0BDE81040FDF799BF10BD000036
:1031900000280040CC00002010B586B0002416485E
:1031A000009401940294039404944FF08041059498
:1031B000016041F61F41C0E901146321C0E9031415
:1031C0008461FFF7B5F908B1FDF779FF4FF480503E
:1031D000009069460848FFF721FA08B1FDF76FFF34
:1031E000049404A904480594FFF76EF9002801D05F
:1031F000FDF765FF06B010BDE00000200C4810B5DB
:103200000A4901604FF4E1314160002181600C22E4
:10321000C160C0E904128161C161FFF757FC002859
:1032200003D0BDE81040FDF74ABF10BD0038014093
:10323000280100200C4810B50A4901604FF4E13123
:103240004160002181600C22C160C0E904128161EB
:10325000C161FFF73BFC002803D0BDE81040FDF73B
:103260002EBF10BD004800406C010020FEE77047F3
:1032700070B5802817D2002915DB3F2913DCCB1746
:1032800001EB5375C5F3C70325F007050124094E6B
:10329000491B8C4006EBC000012A05D0C15C022A04
:1032A00005D0A143C15470BDC15C2143FAE7614020
:1032B000F8E700003C05002010B50021AE2001F029
:1032C000EBFA0021202001F0E7FA0021102001F0A4
:1032D000E3FA0021B02001F0DFFA0021C82001F05C
:1032E000DBFA0021084601F0D7FA0021102001F096
:1032F000D3FA0021402001F0CFFA0021812001F013
:10330000CBFA0021FF2001F0C7FA0021A12001F033
:10331000C3FA0021A62001F0BFFA0021A82001F085
:10332000BBFA00213F2001F0B7FA0021A42001F0F0
:10333000B3FA0021D32001F0AFFA0021084601F0D2
:10334000ABFA0021D52001F0A7FA0021F02001F00E
:10335000A3FA0021D92001F09FFA0021222001F0D8
:103360009BFA0021DA2001F097FA0021122001F0E7
:1033700093FA0021DB2001F08FFA0021202001F0D8
:103380008BFA00218D2001F087FA0021142001F032
:1033900083FA0021BDE81040AF2001F07DBA0000A3
:1033A0000FB4042870B50C46054613D8142C11D858
:1033B0000A4E07AA0A483260069900F0BBFAC4F127
:1033C0001501074A0020C9B23060505421462846F2
:1033D00000F072F870BC5DF814FB00003C000020A7
:1033E000BC04002070B50B4E00242146002000F0E4
:1033F00013F8002506EBC5000121005D01F04CFA31
:103400006D1CEDB2802DF5D3641CE4B2082CECD316
:1034100070BD00003C05002010B50446B031C8B2B4
:10342000002101F039FA102040EA1410002101F0C7
:1034300033FA04F00F00BDE81040002101F02CBA6F
:103440002DE9F04F01EB410100EB400049068006F9
:10345000040E203A4FEA1169D0B2164900EB400041
:10346000A046002501EB800B00261BF805704FFAE3
:1034700089FA380601D5012200E0002261B25046E7
:10348000FFF7F6FE7806641C070EE4B2A4EB080012
:103490000C2809D0761CF6B2082EEAD36D1CEDB2CA
:1034A0000C2DE1D3BDE8F08F09F10100444600F096
:1034B000FF09F3E72C4D0008F0B517460C46064609
:1034C00000250CE021463046FFF7BAFF641CE4B249
:1034D000142C02D90024761CF6B26D1CEDB27A5D74
:1034E000002AEFD1F0BD704770B50446FEF7C2F96F
:1034F00005464FF47A7606E0FEF7BCF9401BB04271
:1035000001D9032070BD206840688006F4D520688A
:10351000416841F010014160002070BD70B5044663
:103520000068416821F010014160FEF7A3F90546EB
:103530004FF47A7607E000BFFEF79CF9401BB042DB
:1035400001D9032070BD206840688006F4D50020B2
:1035500070BD7047FEF726BB30B593B02821684692
:10356000FCF7F7FD14210AA8FCF7F3FD00240F94E3
:103570000920012110940090119412944FF480308E
:1035800004910691CDE901040225CDE907504FF4DD
:10359000E01009906846FEF769FD08B172B6FEE7D3
:1035A0000F20CDE90A054FF48060CDE90C400221DF
:1035B0000AA80E94FEF76EFC08B172B6FEE703206F
:1035C0000F904FF400701090800111900FA8FEF73B
:1035D000EBFB002801D072B6FEE713B030BD704798
:1035E0000148FFF787B80000E0000020F0B502684E
:1035F000164B174C174D4FF08047984205D0B842F4
:1036000003D0A04201D0A84203D122F070064A683C
:103610003243984205D0B84203D0A04201D0A8421C
:1036200003D122F44074CA6822434C6922F080021C
:10363000224302608A68C2620A688262984201D1AB
:103640000969016301214161F0BD0000002C0140C6
:10365000000400400008004010B5846842EA0322DC
:1036600024F47F440A432243826010BD826822F022
:1036700070020A4342F007018160704710B5036A87
:10368000046A24F001040462846924F0F00444EA2A
:10369000021423F00A020A438461026210BD10B5CD
:1036A000036A23F0100303628369046A23F47043FE
:1036B00043EA023224F0A00343EA0111826101626D
:1036C00010BD10B5406A0021C185C184FFF7F6F82E
:1036D00010BD0168CA6822F49072CA6001684A6924
:1036E00022F001024A61016B012904D10168CA6814
:1036F00022F01002CA60202180F83E1000210163F0
:10370000704708B590F83E10222901D0022008BD6C
:1037100082684FF480539A4201D1016921B1816AD4
:103720009A421BD04AB10AE00268816A5268C2F329
:1037300008020A80816A891C08E0026972B1026885
:10374000526802F07F020A70816A491C8162C18D51
:10375000491E0904090CC18503D019E002685268AA
:10376000F1E70168CA6822F02002CA600168CA68ED
:1037700022F48072CA6001684A6922F001024A613B
:10378000202180F83E10016B012903D0FFF798FA41
:10379000002008BD002101630168CA6822F0100200
:1037A000CA6001680A68D20602D50A6849680091B1
:1037B000818DFFF782F8EBE770B504460068016978
:1037C000E26821F44051114301612169A068084376
:1037D000616908432168CA6841F20C639A43024355
:1037E000CA6020684169A26921F4407111434161B6
:1037F0001E492068884202D1FEF7F2FB01E0FEF785
:10380000DFFB00EBC00101EB001260686421800067
:10381000B2FBF0F3B3FBF1F36FF018067343B2FBA6
:10382000F0F5B2FBF0F605EB8305322303EB05154B
:10383000B5FBF1F5B6FBF1F605F0F00505EB061565
:10384000B2FBF0F6B2FBF0F0B0FBF1F06FF0180253
:10385000504306EB800003EB0010B0FBF1F0216851
:1038600000F00F002844886070BD0000003801405F
:103870002DE9F041984617460E460446069D1DE088
:10388000681C1BD02DB1FDF7F5FFA0EB0800A84286
:1038900014D92068C16821F4D071C16020684169E1
:1038A00021F001014161202084F83D0084F83E00B0
:1038B000002084F83C000320BDE8F0812068006807
:1038C00036EA000004D00020B842D9D00020F3E747
:1038D0000120F9E710B501F031F8BDE810400148CA
:1038E000FEF7EEBF6C010020FEE700000FB4054BB1
:1038F00010B503A9044A029800F000F910BC5DF865
:1039000014FB000049420008440000200FB4084B9B
:1039100010B504A902AA039800F0F0F8044602A921
:10392000002000F082FC204610BC5DF814FB000073
:103930002B42000837B514460846064B6A46214616
:1039400000F0DCF804466946002000F06EFC2046DA
:103950003EBD00002B4200080907090E002804DBC9
:1039600000F1E02080F80014704700F00F0000F133
:10397000E02080F8141D704702E008C8121F08C13B
:10398000002AFAD170477047002001E001C1121FE0
:10399000002AFBD1704700002DE9FF5FDDE902201E
:1039A000010DDDF838B0024318D044F61050A1F2F2
:1039B000FF3141430D140F98012820D0A5EB0B00D7
:1039C000401C5FEA000A4FF00004474EDFF81C91EC
:1039D000A046504616D5CAF1000728E00F980124EA
:1039E00043A2012808D0002100980F9BC0E90021C4
:1039F000C0E90243BDE8FF9F6FEA0B01F4E7CBF19A
:103A00000000DEE7074612E0F80707D022463346FB
:103A100040464946FCF78CFE80468946224633469E
:103A200010461946FCF784FE04460E467F10002F10
:103A3000EAD1DDE90201BAF1000F42464B4602DA53
:103A4000FCF776FE01E0FCF7E5FE04460E46002298
:103A5000284BFCF767FF03D84FF0FF30014607E023
:103A60000022254B20463146FCF7BBFDFCF741FF09
:103A7000102409E0002C0ADB0A220023FCF707FDD2
:103A8000019B30321A55641E50EA0102F2D1641CC7
:103A9000019AC4F1110314440F9A012A03D00122A0
:103AA00008430DD10AE0084304D000204FF0110B69
:103AB0000F9080E7A3EB0B056D1E0DE05B4504DD69
:103AC0004FF0000205F1010504E003DA4FF00002B7
:103AD000A5F10105002AECD000980F99C0E9023148
:103AE000C0E9004586E70000000024400000F03FE8
:103AF000300000000000F0430000E03F2DE9FF4FE0
:103B000095B09B468946064600250FE2252877D1C9
:103B100000242746F84A0121059400E0044316F8E2
:103B2000013F203B01FA03F01042F7D130782A28F8
:103B300011D06FF02F033078A0F13002092A16D887
:103B4000059A44F0020402EB820203EB42021044A5
:103B5000761C0590EFE759F8042B0592002A03DA4A
:103B6000504244F40054059044F00204761C30782E
:103B70002E2816D116F8010F44F004042A280DD07F
:103B80006FF02F023078A0F13003092B09D807EB32
:103B9000870302EB4303C718761CF3E759F8047B4D
:103BA000761C30786C280FD006DC4C2817D068289B
:103BB0000DD06A2814D104E0742810D07A280FD1CF
:103BC0000DE044F400140AE044F4801401E044F4ED
:103BD00040147278824202D104F58014761C761C5F
:103BE000307866280BD013DC582877D009DC002801
:103BF00075D04528F6D04628F4D047281AD19DE143
:103C000018E0632835D0642879D0652812D195E171
:103C1000702873D008DC6728F1D069286FD06E282F
:103C20000DD06F2806D1B5E073282CD0752875D03B
:103C3000782874D05A46179990476D1C75E1C4F3E3
:103C40000250022809D003280DD0D9F8001004280A
:103C50000DD00D6009F1040967E1D9F80010EA17E9
:103C6000C1E90052F6E7D9F800100D80F2E70D70B7
:103C7000F0E719F8041B8DF8001000208DF8010002
:103C8000EA46012003E059F804AB4FF0FF3061072A
:103C90004FF0000102D40DE008F101018846B9425D
:103CA0000FDA8045F8DB1AF808100029F4D108E093
:103CB00008F1010188468142FADB1AF80810002950
:103CC000F6D105985B46A0EB080721463846179ABF
:103CD00000F094FA284400EB080507E04DE029E1E4
:103CE0000DE01AF8010B5A4617999047B8F10108F0
:103CF000F7D25B4621463846179A13E142E00A2282
:103D00000092C4F302524FF0000A022A08D059F878
:103D100004CB032A4FEAEC710AD00DE029E02AE037
:103D200009F1070121F00702F2E802C1914609E01A
:103D30000FFA8CFC4FEAEC71042A03D14FFA8CFC89
:103D40004FEAEC71002907DA0A460021DCF1000C89
:103D500061EB02012D2202E0220504D52B228DF811
:103D60000420012203E0E20701D02022F7E7904679
:103D700059E00A2102E010220DE010214FF0000A64
:103D800000910BE010224FF0000A44F004040827D1
:103D9000009203E008224FF0000A0092C4F302529E
:103DA000022A05D059F804CB0021032A08D009E0E3
:103DB00009F1070121F00702F2E802C1914605E08E
:103DC0001FFA8CFC042A01D10CF0FF0C4FF0000804
:103DD000220728D5702806D0009B83F0100353EAF1
:103DE0000A0305D00EE040228DF80420012208E0ED
:103DF0005CEA010206D030228DF804208DF805001F
:103E000002229046009B83F0080353EA0A030AD17A
:103E10005CEA010201D1620705D530228DF8042049
:103E20004FF001087F1E582804D034A003900EA83C
:103E300002900DE036A0F9E753466046009AFCF781
:103E400026FB84460398825C0298401E0290027012
:103E50005CEA0100F0D1029806A9081A00F1200AD4
:103E6000600702D524F4803400E00127574502DDC5
:103E7000A7EB0A0000E0002000EB0A010090059883
:103E80004144401A0590E00306D45B462146179A48
:103E9000059800F0B3F90544002706E001A85A464A
:103EA000C05D179990476D1C7F1C4745F6DBE0030A
:103EB0000CD55B462146179A059800F09FF90544FA
:103EC00004E030205A46179990476D1C0099481E0F
:103ED00000900029F5DC08E0029802995A46007823
:103EE000491C0291179990476D1CBAF10001AAF183
:103EF000010AF1DC65E100000928010030313233AC
:103F00003435363738396162636465660000000015
:103F100030313233343536373839414243444546FF
:103F20000000000000F058F90544761C30780028A5
:103F30007FF4ECAD19B02846BDE8F08F620700D4DD
:103F4000062709F1070222F0070CFCE80223E146EC
:103F500003F000485FEA080C02D00FF2702C0DE06D
:103F60005FEA045C02D50FF2682C07E05FEAC47CCC
:103F700002D00FF2602C01E0AFF2700C4FF0FF386E
:103F800023F00043CDF850C065280CD006DC45284E
:103F900009D046281DD047283DD13DE0662818D0DD
:103FA00067287ED138E00021112F01DB112000E0CD
:103FB000781CCDE9000106A90EA8FFF7EDFCDDE9AC
:103FC0000F010E9A03910021009207F1010A04915A
:103FD0004DE04FF000400097CDE9011006A90EA872
:103FE000FFF7DAFCDDE90F0203920E9B1199002224
:103FF000DDF80CA00093049211B9791C00EB010AC2
:10400000B7EB0A0004D4C0F1FF3007F1010A0490B5
:10401000AAEB0700019044E0012F00DA01270021FC
:10402000112F01DD112000E03846CDE9000106A97D
:104030000EA8FFF7B1FCDDE90F010E9A03910021F4
:1040400004910092BA4621070CD40399514500DA35
:104050008A46BAF1010F05DD009AAAF10101515C0F
:10406000302908D0B84202DA10F1040F06DA012133
:10407000CDE9011015E0AAF10101E9E7002805DC0E
:10408000049901440491AAEB000102E0411C51454E
:1040900000DD8A460499401A401C01904FF0004010
:1040A0000290200704D40198504501DBCDF804802C
:1040B00000208DF84F0002980DF14F07B0F1004F2E
:1040C00025D02B200E9002984FF0020800280CDA21
:1040D000404202902D200E9007E00A210298FCF742
:1040E000C0F93031029007F8011DB8F10001A8F1C4
:1040F0000108F2DC02980028EFD1791E0E980870B2
:10410000307800F0200040F0450007F8020D12A8BA
:10411000C01B00F107081498007800B1012000EBE3
:104120000A01019801EBE07105984144401A401ED4
:104130000590E00306D45B462146179A059800F0E7
:104140005DF805441498007818B15A4617999047BD
:104150006D1CE00324D55B462146179A059800F0B4
:104160004DF805441CE00498002807DBDDE9030155
:10417000884203DD0098405C179901E017993020D0
:104180005A469047049805F10105401C0490019897
:10419000401E019004D12E205A46179990476D1C5D
:1041A000BAF10001AAF1010ADDDC05E017F8010B04
:1041B0005A46179990476D1CB8F10001A8F1010803
:1041C000F4DC5B462146179A0598ABE62D0000000B
:1041D0002B000000200000002DE9F04104460025DE
:1041E0001E461746880404D405E039462020B0470F
:1041F0006D1C641EF9D52846BDE8F0812DE9F0411B
:10420000044600251E469046C80301D5302700E02D
:104210002027880404D505E041463846B0476D1C88
:10422000641EF9D52846BDE8F0810A68531C0B606E
:104230001070704703E00921491E89B2FCD2401E6C
:1042400080B2F8D27047000013B54FF6FF73012219
:1042500069460248FEF736FD00981CBD2801002083
:1042600010B500244FF400510348FDF7F1FA00B9EE
:104270000124204610BD0000000C01400148FEF75B
:10428000A1B90000E0000020FDF794FCFFF764F9FD
:10429000FEF7E2FEFEF7B2FFFEF77EFFFEF764FFD9
:1042A000FEF79CFEFEF740FFFEF7C4FF00F06AFB3E
:1042B00000F0B6FBFCE7000070B5002400F0DAFA6D
:1042C0004FF47A7633462B2211A11C48FEF7FAFCF4
:1042D0001B4D04E0641CA4B20120FDF7B7F9287857
:1042E00018B1B44204D3012410E0B442F2D3FAE787
:1042F00041F28830FDF7AAF9002068802870022476
:1043000010A11148FBF730FF00B10024204670BD1A
:1043100041542B4D515454434F4E4E3D302C226D41
:10432000717474732E6865636C6F7564732E636F3C
:104330006D222C313838332C300D0A006C010020EE
:10434000300000204F4B0000BC03002070B5364801
:104350000068C16841F02001C16034A0FFF7C6FACF
:104360004FF47A7402E02046FDF770F933A20D2174
:1043700033A000F06BF90028F5D135A0FFF7B6FAAD
:1043800002E02046FDF762F92CA2062133A000F0DE
:104390005DF90028F5D133A0FFF7A8FA02E0204626
:1043A000FDF754F925A2112135A000F04FF900289E
:1043B000F5D138A0FFF79AFA41F2883402E020469E
:1043C000FDF744F900F0E8F80028F8D134A0FFF731
:1043D0008DFA4FF4FA5402E02046FDF737F900F069
:1043E00001FA0028F8D133A0FFF780FA4FF4FA65FC
:1043F00002E02846FDF72AF910A2B521314800F065
:1044000025F90028F5D130A0FFF770FA02E0204628
:10441000FDF71CF9FFF750FF0028F8D1BDE8704008
:104420002EA0FFF763BA00006C010020312E41542A
:104430002B43574D4F44453D310D0A004F4B000073
:1044400041542B43574D4F44453D310D0A00000068
:10445000322E415445300D0A0000000041544530D1
:104460000D0A0000332E4E4F206175746F20636F6C
:104470006E6E65637420776966690D0A000000003E
:1044800041542B43574155544F434F4E4E3D300DF1
:104490000A000000342E41542B5253540D0A0000E0
:1044A000352E574946492053455454494E470D0A25
:1044B00000000000362E5553455220434F4E4649CA
:1044C000470D0A00E0550008372E434F4E4E454336
:1044D00054205345525645520D0A0000382E4E4581
:1044E00054574F524B204F4B2121210D0A00000001
:1044F00010B5A2B00020209080216846FBF729FE6D
:10450000114C207801281CD1A088401CA0800120DB
:10451000FDF79CF8A0880528F6D30CA10F48FBF7FF
:1045200023FE60B16B4620AA0DA10C48FBF736FEB6
:104530000A4916A0FFF7DAF96846FBF727FE00F0F4
:1045400099F922B010BD0000300000202B4D5154CD
:1045500054535542524543563A000000BC030020D4
:104560002B4D515454535542524543563A302C2208
:104570002F6D7174745F6170702F757365722F6722
:104580006574222C25642C25730000006D73673A36
:1045900025730D0A0000000070B5002400F06AF9D0
:1045A0004FF47A73082216A11848FEF78BFB184DBA
:1045B0004FF4FA6604E0641CA4B20120FDF746F84B
:1045C000287818B1B44204D3012413E0B442F2D3E2
:1045D000FAE741F28830FDF739F80020688028704A
:1045E00002240CA10C48FBF7BFFD18B100240BA05E
:1045F000FFF77CF911A0FFF779F9204670BD0000A4
:1046000041542B5253540D0A000000006C0100204D
:10461000300000204F4B0000BC03002052535421B7
:10462000212121212121212121212121212121217A
:104630002121212121210D0A000000005253542084
:10464000434D442073656E640D0A00002DE9F0416E
:1046500090460C460746002500F00CF94FF47A7698
:104660003346224639461648FEF72CFB154C03E02C
:1046700001206D1CFCF7EAFF207818B1B54204D385
:10468000012417E0B542F3D3FAE74FF4FA75A08896
:10469000401CA0800120FCF7D9FFA088A842F6D3D7
:1046A000002060802070022441460748FBF75CFD33
:1046B00000B1002400F0DEF82046BDE8F0810000E3
:1046C0006C01002030000020BC030020FEB5314802
:1046D00000250068FBF799FE04462F480068FBF7A9
:1046E00094FE02462F482D4B2D4900681B6809682F
:1046F0008DE80B0023462C492C48FFF707F92B487F
:10470000FBF744FD82B24FF47A74234627492848C8
:10471000FEF7D8FA2548FBF739FD82B22346234934
:104720002448FEF7CFFA6610234C04E06D1CADB2AE
:104730000120FCF78BFF207818B1B54204D3012685
:1047400025E0B542F2D3FAE73220FCF77FFF0025DF
:1047500065802570012619A11948FBF705FD10B1E8
:104760000026657013E06078401CC0B260700528B8
:104770000DD165704FF4FA5405E02046FCF766FF52
:1047800010A0FFF7B3F8FFF797FD0028F5D13046EA
:10479000FEBD00002C000020280000202400002086
:1047A0001C0000202000002098560008BC010020BA
:1047B0006C01002028010020300000204F4B000039
:1047C000BC030020636F6E6E65637420616761696E
:1047D0006E2121212121212121212121212121217C
:1047E000210D0A0070B5002400F044F84FF47A76E9
:1047F0003346242211A11B48FEF764FA1A4D04E047
:10480000641CA4B20120FCF721FF287818B1B4423F
:1048100004D3012410E0B442F2D3FAE74FF4FA5083
:10482000FCF714FF00206880287002240FA11048B4
:10483000FBF79AFC00B10024204670BD41542B4385
:10484000574A41503D224348494E455F5044434EEC
:10485000222C22786C6D71776131303036220D0A4E
:10486000000000006C010020300000204F4B0000D1
:10487000BC03002010B50648FBF788FC014604483D
:10488000FBF767FC0349002048800870888010BD52
:10489000BC0300203000002008B5074A01B14021C8
:1048A000117050700A2000900223034A78210348B7
:1048B000FDF7AAF808BD00003800002078000020AD
:1048C00010B5094B094C4FF48051012806D0012244
:1048D0001846FCF7CAFF0020207010BD00221846C1
:1048E000FCF7C3FF0120F7E7000C01404000002067
:1048F00010B5094B094C012807D001224021184668
:10490000FCF7B3FF0020207010BD002240211846A4
:10491000FCF7ABFF0120F6E7000801404100002052
:104920004FF480510148FCF798BF0000000C014093
:1049300040210148FCF791BF0008014038B50E48FE
:1049400000248DF8004000680068C043800611D440
:104950004FF47A73012269460748FEF751F9084877
:10496000064B9DF8002041885A54491C4180012182
:104970000170848038BD00006C010020BC03002061
:104980003000002038B5FEF797FC0024234612A221
:10499000214620460094FEF703FD002313A219468A
:1049A00001200094FEF7FCFC002315A2194602200A
:1049B0000094FEF7F5FCFEF715FD0020FFF798FFC9
:1049C0000020FFF77DFFFFF7C1FCFFF757FCBDE8B4
:1049D000384010A0FEF78ABF74656D703A253564C3
:1049E0002C68756D693A2534640000006D712D32B4
:1049F0003A2535642C6D712D373A2534640000005A
:104A00006D712D3133353A2534642C666972653AFF
:104A100025346400737563636573730D0A000000C9
:104A20002DE9FC41FFF764FD74480026744D0178C0
:104A3000012903D10670FFF713FC28707148017833
:104A4000012938D1DFF8C0810670002700246F48A3
:104A5000FCF712FD64216D48FCF770FC38B96B4817
:104A6000FCF7AEFB58F82420104448F82400641CDE
:104A7000E4B2032CEBD36548FCF75EFD7F1CFFB26C
:104A8000642FE3D3D8F80010642391FBF3F26A603B
:104A9000D8F804105EA091FBF3F1A960D8F80840A3
:104AA00094FBF3F3EB60C8F80060C8F80460C8F842
:104AB0000860FEF71BFF5D480178012936D1504997
:104AC00006701431081FFCF785FA6869FBF79DFC36
:104AD00004462869FBF799FC034628780021CDE9B4
:104AE000004053A20846FEF75BFC6868009055A2A0
:104AF00000210120AB68FEF753FC2878009056A2F5
:104B000000210220EB68FEF74BFCFEF76BFC6869A6
:104B1000FBF794FC04460F462869FBF78FFCCDE9B0
:104B2000004702460B4651A0FEF7E0FE55480178CB
:104B3000012952D1067068684FF4FA64524FDFF8C9
:104B40004C81A04222D8A868A0421FD8E868A042A1
:104B50001CD82869B84219DC6969414516DB2878F8
:104B6000012813D00020FFF7C3FE0020FFF7A8FEA6
:104B700047A200210320FEF713FC45A200210420D8
:104B8000FEF70EFC002142A2052022E0FFF7D0FE36
:104B9000FFF7C6FE6868A04201D942A217E0A868E4
:104BA000A04201D942A212E0E868A04201D944A281
:104BB0000DE02869B84201DD44A208E06969414579
:104BC00001DA46A203E02878012804D147A2002197
:104BD0000320FEF7E5FBFEF705FC484801780129B4
:104BE00009D10670FFF772FD002804D0BDE8FC4132
:104BF00043A0FEF77BBEBDE8FC8100001200002050
:104C00001800002010000020B00100204800002003
:104C10006D712D323A25642C6D712D373A25642C37
:104C20006D712D3133353A25640D0A0011000020D5
:104C300074656D703A2535642C68756D693A253454
:104C4000640000006D712D323A2535642C6D712D94
:104C5000373A2534640000006D712D3133353A2523
:104C600034642C666972653A2534640074656D702D
:104C70003A252E32662C68756D693A252E32660DFE
:104C80000A00000013000020000020420000A041A4
:104C90002020202020202020202020202020202014
:104CA00020200000434F205761726E696E6700003C
:104CB000536D6F6B65205761726E696E67000000FF
:104CC000416972205761726E696E670054656D703C
:104CD000205761726E696E670000000048756D694B
:104CE000205761726E696E67000000004669726548
:104CF000205761726E696E67000000001600002088
:104D00006D73672073656E64206572726F720D0A31
:104D10000000000000000000000000000102030489
:104D2000060708090000000001020304000000005B
:104D30000000000000000000000000003F400000F4
:104D40000000000000003000400030004000000083
:104D500009000BC03D000BC03D00090018C02440F5
:104D60007FE0224031800000180024C01B000D802D
:104D70003240018003801C4027401C8007400040D7
:104D800010006000000000000000000000000000B3
:104D900000001F80204040200000402020401F8055
:104DA00000000000090006001F8006000900000046
:104DB000040004003F8004000400000000100060B4
:104DC00000000000000000000400040004000400D3
:104DD000040000000000004000000000000000008F
:104DE000002001C006003800400000001F80204065
:104DF000204020401F800000000010403FC00040C5
:104E00000000000018C0214022402440184000004B
:104E100010802040244024401B80000002000D0030
:104E200011003FC0014000003C8024402440244049
:104E3000238000001F802440244034400380000071
:104E40003000200027C03800200000001B802440D4
:104E5000244024401B8000001C0022C0224022402D
:104E60001F8000000000000008400000000000005B
:104E700000000000046000000000000000000400CA
:104E80000A001100208040400900090009000900C3
:104E90000900000000004040208011000A000400CA
:104EA0001800200023402400180000001F8020402C
:104EB000274029401F400000004007C039000F0074
:104EC00001C0004020403FC0244024401B8000001F
:104ED0001F802040204020403080000020403FC004
:104EE000204020401F80000020403FC024402E4032
:104EF00030C0000020403FC024402E0030000000A1
:104F00000F001080204022403380020020403FC02C
:104F1000040004003FC02040204020403FC020400B
:104F2000204000000060202020203FC02000200002
:104F300020403FC024400B0030C0204020403FC0F4
:104F400020400040004000C03FC03C0003C03C0087
:104F50003FC0000020403FC00C4023003FC0200065
:104F60001F802040204020401F80000020403FC084
:104F700024402400180000001F802140214020E030
:104F80001FA0000020403FC02440260019C0004060
:104F900018C02440244022403180000030002040CE
:104FA0003FC020403000000020003F800040004013
:104FB0003F80200020003E0001C007003800200094
:104FC000380007C03C0007C038000000204039C04E
:104FD000060039C0204000002000384007C038409B
:104FE00020000000304021C02640384020C0000092
:104FF000000000007FE04020402000000000700022
:105000000C000380004000000000402040207FE0B2
:105010000000000000002000400020000000000010
:105020000010001000100010001000100000000020
:105030004000000000000000000002800540054024
:1050400003C0004020003FC0044004400380000033
:10505000000003800440044006400000000003807C
:10506000044024403FC0004000000380054005404C
:1050700003400000000004401FC0244024402000E2
:10508000000002E0055005500650042020403FC0BB
:105090000440040003C000400000044027C000405A
:1050A0000000000000100010041027E000000000C5
:1050B00020403FC00140070004C004402040204081
:1050C0003FC000400040000007C0040007C00400CB
:1050D00003C00000044007C00440040003C00040B7
:1050E000000003800440044003800000041007F027
:1050F000045004400380000000000380044004507A
:1051000007F00010044007C0024004000400000043
:10511000000006400540054004C0000000000400F7
:105120001F8004400040000004000780004004404D
:1051300007C000400400070004C00180060004000E
:10514000060001C0070001C006000000044006C0C0
:10515000010006C0044000000410071004E00180B4
:10516000060004000000044005C0064004400000A2
:105170000000000004007BE0402000000000000070
:105180000000FFF000000000000040207BE0040071
:10519000000000004000800040002000200040008F
:1051A00000000000000000000000000000000000FF
:1051B00000000000000000000000000000000000EF
:1051C00000000000000000000000000000000000DF
:1051D00000000000000000000000000000000000CF
:1051E0000000000000000006000000000000001E9B
:1051F00000000000000000DE00000000000000D8F9
:1052000000000000000000D800000000000000D8EE
:1052100000000000000000DE00000000000000FEB2
:1052200000000000000000F6000000000000007216
:105230000000000000000000000000000000007CF2
:1052400000000000000000FE00000000000000C69A
:1052500000000000000000C600000000000000C6C2
:1052600000000000000000FE000000000000007CC4
:105270000000000000000000000000000000001E10
:1052800000000000000000DE00000000000000D66A
:1052900000000000000000D600000000000000D662
:1052A00000000000000000D600000000000000DE4A
:1052B00040000000000000FE600000000010006CD4
:1052C00070000000003000007800000000F0007C5A
:1052D0007C00000007F000FE7E0000003FF000C6EA
:1052E0007F000001FFF000C67F80000FFFF000C6C6
:1052F0007FC0007FFFF000FE7FE003FFFFF0007C37
:105300007FF03FFFFFF000027FF83FFFFFF0000655
:105310007FFC3FFFFFF0001E7FFE3FFFFFF000BC61
:105320007FFF3FFFFFF000E07FFFBFFFFF8000F83F
:105330007FFFFFFFFC00003E7FFFFFFFE000000E4D
:105340007FFFFFFF000000B87FFFFFF8000000E0D4
:105350007FFFFFF0000000FE7FFFFFF00000001E57
:105360007FFFFFF0000000027FFFFFF00000000061
:105370007FEFFFF0020000067FE7FFF00200000E63
:105380007FE3FFF00200001C7FE1FFF8030000BA9A
:105390007FE0FFFC030000F67FE07FFE038000E675
:1053A0007FE03FFF038000F67FE03FFF83C0003EC9
:1053B0007FE03FFFC3C0000E7FE03FFFE3E000025D
:1053C0007FE03FFFF3E000007FE03FFFFBF00002E3
:1053D0007FE03FFFFFF000667FE03FFFFFF800F651
:1053E0007FE03FFFFFF800D67FE03FFFFFFC00D6E5
:1053F0007FF07FFFFFFC00D67FF8FFF7FFFE00D6AF
:105400007FFFFFF3FFFE00DE3FFFFFE1FFFF008CA9
:105410003FFFFFE0FFCF00401FFFFFC07FC780C0FE
:105420001FFFFFC03FC380C00FFFFF801FC1C0FE32
:1054300007FFFF000FC0C0FE03FFFE0007C060C0F3
:1054400001FFFC0003C020C0007FF00001C0008607
:10545000000F800000C0001600000000004000D6D1
:1054600000000000000000D600000000000000D690
:1054700000000000000000D600000000000000D680
:1054800000000000000000D000000000000000C08C
:105490000000000000000006000000000000001EE8
:1054A00000000000000000DE00000000000000D846
:1054B00000000000000000D800000000000000D83C
:1054C00000000000000000DE00000000000000DE20
:1054D00000000000000000F6000000000000007264
:1054E000000000000000000000000000000000625A
:1054F00000000000000000F600000000000000F6C0
:1055000000000000000000D600000000000000D6EF
:1055100000000000000000D600000000000000DED7
:10552000000000000000008C0000000000000000EF
:10553000000000000000000000000000000000006B
:10554000000000000000000000000000000000005B
:10555000000000000000000000000000000000004B
:10556000000000000000000000000000000000003B
:10557000000000000000000000000000000000002B
:10558000000000000000000000000000000000001B
:10559000000000000000000000000000000000000B
:1055A000DDDDDDDDDCBBBBDDDDDDDDDDDDDDDDDD70
:1055B00098888888888888887777777777888888B0
:1055C0008555555666666666666666666668888848
:1055D0008333333222222222222222222228888D41
:1055E00041542B4D515454555345524346473D3039
:1055F0002C312C22646576696365222C2264364C3A
:105600005675564B387234222C2276657273696F48
:105610006E3D323031382D31302D33312672657385
:105620003D70726F647563747325324664364C56F0
:1056300075564B38723425324664657669636573F6
:105640002532466465766963652665743D31373871
:1056500035313339363431266D6574686F643D7386
:10566000686131267369676E3D397571727244578E
:10567000716E452532462532426464666D46613757
:1056800054656E6D76515277253344222C302C3080
:105690002C22220D0A00000041542B4D515454502D
:1056A00055423D302C22247379732F64364C567545
:1056B000564B3872342F6465766963652F74686958
:1056C0006E672F70726F70657274792F706F73745C
:1056D000222C227B5C2269645C223A205C223132DB
:1056E000335C225C2C5C2276657273696F6E5C227F
:1056F0003A205C22312E305C225C2C5C227061727C
:10570000616D735C223A207B5C22745C223A207BC0
:105710005C2276616C75655C223A2025647D5C2C88
:105720005C22685C223A207B5C2276616C75655C49
:10573000223A2025647D5C2C5C226D315C223A206B
:105740007B5C2276616C75655C223A2025647D5C09
:105750002C5C226D325C223A207B5C2276616C7577
:10576000655C223A2025647D5C2C5C226D335C22D2
:105770003A207B5C2276616C75655C223A20256458
:105780007D7D7D222C302C300D0A0000AC570008A6
:10579000000000204800000078390008F457000895
:1057A00048000020F81200008839000801000000BD
:1057B00010000000000000000024F40000000000C1
:1057C00000000000000000000000000000000000D9
:1057D00000000000000000000000000000000000C9
:1057E00000000000000000000000000000000000B9
:0457F00000000000B5
:04000005080000ED02
:00000001FF
